:060000000A128A11F32F21
:10000E008312031389143230F0000030F1000A120B
:10001E008A15B3200A128A11831203138910323003
:10002E00F0000030F1000A128A15B3200A128A116C
:10003E0008000A128A1565230A128A118316031301
:10004E004F08C1004E08C0004008F0004108F10002
:10005E000030F11BFF30F200F30001300A128A1556
:10006E0019240A128A11730883120313A700720847
:10007E00A6007108A5007008A4003E30A30016303B
:10008E00A2002530A1008930A0000A128A11AE24E8
:10009E000A128A11831203132308EB002208EA00C6
:1000AE002108E9002008E8000A128A15D7220A1250
:1000BE008A1183120313690883160313BF00831278
:1000CE000313680883160313BE003E08F0003F08B2
:1000DE00F1000030F11BFF30F200F30001300A1284
:1000EE008A1519240A128A11730883120313A700A2
:1000FE007208A6007108A5007008A4004130A30084
:10010E001030A2000030A1000030A0000A128A11A7
:10011E00AE240A128A11831203132308C100220887
:10012E00C0002108BF002008BE004030BD00A03036
:10013E00BC000030BB000030BA000A128A152D2612
:10014E000A128A11831203133D08DB003C08DA0001
:10015E003B08D9003A08D8004230D7000030D6000C
:10016E000030D5000030D4000A128A1156220A122D
:10017E008A11831203135708EB005608EA0055083C
:10018E00E9005408E8000A128A15D7220A128A11C9
:10019E0083120313690883160313B100831203132A
:1001AE00680883160313B000E830F7000330F80038
:1001BE003108FA003008F9000A128A15F5210A12E0
:1001CE008A11780883160313BD007708BC00E83047
:1001DE00F0000330F1003108F3003008F2000A128B
:1001EE008A1540210A128A11710883160313BB0067
:1001FE007008BA006430F7000030F8003B08FA00CF
:10020E003A08F9000A128A15F5210A128A1178089D
:10021E0083160313B9007708B8006430F00000307D
:10022E00F1003B08F3003A08F2000A128A15402149
:10023E000A128A11710883160313B7007008B600EC
:10024E000A30F7000030F8003708FA003608F900D7
:10025E000A128A15F5210A128A11780883160313D9
:10026E00B5007708B4000A30F0000030F10037080E
:10027E00F3003608F2000A128A1540210A128A117A
:10028E00710883160313B3007008B2009030F200A9
:10029E0000300A128A15C2200A128A1155300A122B
:1002AE008A15F6200A128A11831603133808303E77
:1002BE00F20001300A128A15C2200A128A11831620
:1002CE0003133408303EF20001300A128A15C220A0
:1002DE000A128A11831603133208303EF2000130DF
:1002EE000A128A15C2200A128A112E30F20001302B
:1002FE000A128A15C2200A128A11831603133C08A9
:10030E00303EF20001300A128A15C2200A128A11FA
:10031E004630F20001300A128A15C2200A128A11E2
:10032E00E830F7000330F800831603133F08FA0095
:10033E003E08F9000A128A15F5210A128A11780868
:10034E0083160313AB007708AA00E830F0000330E1
:10035E00F1003F08F3003E08F2000A128A15402110
:10036E000A128A11710883160313A9007008A800D7
:10037E006430F7000030F8002908FA002808F90068
:10038E000A128A15F5210A128A11780883160313A8
:10039E00A7007708A6006430F0000030F1002908AD
:1003AE00F3002808F2000A128A1540210A128A1157
:1003BE00710883160313A3007008A2000A30F70019
:1003CE000030F8002308FA002208F9000A128A15F4
:1003DE00F5210A128A11780883160313A5007708EF
:1003EE00A4000A30F0000030F1002308F3002208C8
:1003FE00F2000A128A1540210A128A117108831618
:10040E000313A1007008A000C030F20000300A12E1
:10041E008A15C2200A128A114A300A128A15F6204B
:10042E000A128A11831603132608303EF200013099
:10043E000A128A15C2200A128A118316031324087F
:10044E00303EF20001300A128A15C2200A128A11B9
:10045E00831603132008303EF20001300A128A156B
:10046E00C2200A128A112E30F20001300A128A15A9
:10047E00C2200A128A11831603132A08303EF20094
:10048E0001300A128A15C2200A128A114330F20074
:10049E0001300A128A15C2200A128A11080083122C
:1004AE00031357088039E4005708DC005C07E600A8
:1004BE00D61F622A632A642A661466080319682AFC
:1004CE00692A792A660A031D6D2A6E2A762A003059
:1004DE00D7000030D6000030D5000030D400D6173B
:1004EE00D701812A0030D7000030D6000030D50069
:1004FE000030D4005B088039E500650864060319F6
:10050E00892A8A2A8B2A64175B08DC005C07E500BF
:10051E00DA1F922A932A942A651465080319982AD9
:10052E00992AA92A650A031D9D2A9E2AA62A003009
:10053E00DB000030DA000030D9000030D800DA17C6
:10054E00DB01B12A0030DB000030DA000030D900C8
:10055E000030D800660865020318B62AB72ADD2ACD
:10056E00641FBA2ABB2ABF2A8030DC005C08E4066E
:10057E006608E7006508E6006708E5005408E7002E
:10058E005808D4006708D8005508E7005908D50068
:10059E006708D9005608E7005A08D6006708DA003F
:1005AE005708E7005B08D7006708DB00E70165081E
:1005BE00DC00DD015D08DF0066085C02DE00031C66
:1005CE00DF035F08803AFF0080307F02031DF12AAF
:1005DE001A305E02031CF42AF52A2C2B8312031305
:1005EE005708560455045404031DFE2A002B0130EF
:1005FE00012B0030E7000030D7000030D60000306D
:10060E00D5000030D4006508E600342B671C102B93
:10061E00112B182B6708DC0003105C0C0138E70067
:10062E001A2B0310E70C541C1D2B1E2B1F2BE71728
:10063E000130DC00570DD70CD60CD50CD40CDC0BCE
:10064E00212B0130DC005C08E607831203136508DA
:10065E006602031C332B342B0D2B641B372B382BCC
:10066E00812B6608031D3C2B3D2B462B0030D700FB
:10067E000030D6000030D5000030D400AD2C580824
:10068E00D407590803110318013E03194F2BD50740
:10069E005A0803110318013E0319562BD6075B089F
:1006AE0003110318013E03195D2BD707571C602B4E
:1006BE00612B352C671C642B652B6C2B6708DC00BB
:1006CE0003105C0C0138E7006E2B0310E70C541C72
:1006DE00712B722B732BE7170130DC00570DD70CE3
:1006EE00D60CD50CD40CDC0B752B0130DC005C0861
:1006FE00E607352C5708803AFF005B08803A7F02E8
:10070E00031D932B5A085602031D932B59085502AD
:10071E00031D932B580854020318962B972BEF2B7F
:10072E00FF30DC00FF30DD00FF30DE00FF30DF0089
:10073E005808E0005908E1005A08E2005B08E3009F
:10074E005408E0025508031C550FAE2BAF2BE102E7
:10075E005608031C560FB42BB52BE2025708031C88
:10076E00570FBA2BBB2BE3026008DC076108031896
:10077E00610FC22BC32BDD0762080318620FC82B53
:10078E00C92BDE0763080318630ADF075F08D7006B
:10079E005E08D6005D08D5005C08D4008030DC0011
:1007AE005C08E406E709E70A6708031DDF2BE02B68
:1007BE00FD2B0130D407003003180130D50700306F
:1007CE0003180130D607003003180130D707FD2B70
:1007DE005808D4025908031C590FD5025A08031C95
:1007EE005A0FD6025B08031C5B0FD702570856043C
:1007FE0055045404031D042C052C312C6708031DCD
:10080E00092C0A2C312C0030D7000030D6000030D5
:10081E00D5000030D400AD2C0130DC000310D40D17
:10082E00D50DD60DD70DDC0B152CE71F1F2C202C4C
:10083E00212C5414671C242C252C282C0314E70D72
:10084E002A2C0310E70D660803192E2C2F2C312CA1
:10085E000130E602D61F342C352C132CE501E71F90
:10086E00392C3A2C482C67087F3903193F2C402C21
:10087E00432CE501E50A482C541C462C472C482CE9
:10088E00402C650803194C2C4D2C812C0130D407BB
:10089E00003003180130D507003003180130D60799
:1008AE00003003180130D707571C5E2C5F2C812CAB
:1008BE005408DC005508DD005608DE005708DF003E
:1008CE000130E0005F0DDF0CDE0CDD0CDC0CE00B0C
:1008DE00692C5F08D7005E08D6005D08D5005C085D
:1008EE00D400660A03197C2C7D2C812C0130DC008F
:1008FE005C08E607660A0319852C862C8B2C660885
:10090E00031D8A2C8B2C992C0030D7000030D6007A
:10091E000030D5000030D4006608031D972C982CAB
:10092E00992CE401661C9C2C9D2C9F2CD617A32C75
:10093E007F30DC005C08D6056608DC0003105C0C1A
:10094E00D700E41FAB2CAC2CAD2CD71708008312AC
:10095E00031323088039AD002308A8002807B3002D
:10096E00A21FBA2CBB2CBC2C331433080319C02C79
:10097E00C12CD02C330A031DC52CC62CCE2C003016
:10098E00A3000030A2000030A1000030A000A2178A
:10099E00D82C0030A3000030A2000030A10000309F
:1009AE00A00027088039A8002808AD062708A8004F
:1009BE002807B200A61FE42CE52CE62C32143208D0
:1009CE000319EA2CEB2CFA2C320A031DEF2CF02C17
:1009DE00F82C0030A7000030A6000030A500003033
:1009EE00A400A617022D0030A7000030A60000308C
:1009FE00A5000030A40032080319062D072D0C2D7A
:100A0E003308031D0B2D0C2D152D0030A3000030C7
:100A1E00A2000030A1000030A000F22F2008F0004C
:100A2E0026080A128A1519210A128A1171088312D0
:100A3E000313B9007008B8003808A800A901AA016C
:100A4E00AB012B08B1002A08B0002908AF00280816
:100A5E00AE003908A800A901AA01AB012B08B70006
:100A6E002A08B6002908B5002808B4002108F000AD
:100A7E0025080A128A1519210A128A117108831281
:100A8E000313B9007008B8003808A800A901AA011C
:100A9E00AB012808AE07290803110318013E0319FC
:100AAE00592DAF072A0803110318013E0319602DB3
:100ABE00B0072B0803110318013E0319672DB10768
:100ACE003908A800A901AA01AB012808B407290812
:100ADE0003110318013E0319752DB5072A080311DA
:100AEE000318013E03197C2DB6072B0803110318BA
:100AFE00013E0319832DB7072208F00024080A12BD
:100B0E008A1519210A128A11710883120313B9006A
:100B1E007008B8003808A800A901AA01AB0128087E
:100B2E00AE07290803110318013E03199F2DAF07C5
:100B3E002A0803110318013E0319A62DB0072B082E
:100B4E0003110318013E0319AD2DB1073908A80092
:100B5E00A901AA01AB012808B4072908031103183B
:100B6E00013E0319BB2DB5072A0803110318013ED8
:100B7E000319C22DB6072B0803110318013E0319E2
:100B8E00C92DB7070830A8000310AE0DAF0DB00D7C
:100B9E00B10DA80BCB2D2108F00024080A128A15DE
:100BAE0019210A128A11710883120313B9007008F1
:100BBE00B8003808A8003908A900AA01AB01280816
:100BCE00AE07290803110318013E0319EF2DAF07D5
:100BDE002A0803110318013E0319F62DB0072B083E
:100BEE0003110318013E0319FD2DB1072008F00073
:100BFE0025080A128A1519210A128A117108831200
:100C0E000313B9007008B8003808A8003908A90005
:100C1E00AA01AB012808AE07290803110318013EEB
:100C2E0003191A2EAF072A0803110318013E0319E0
:100C3E00212EB0072B0803110318013E0319282E8D
:100C4E00B1070830A8000310AE0DAF0DB00DB10DF9
:100C5E00A80B2A2E2008F00024080A128A15192142
:100C6E000A128A11710883120313B9007008B800B2
:100C7E003808A8003908A900AA01AB012808AE0758
:100C8E00290803110318013E03194E2EAF072A0837
:100C9E0003110318013E0319552EB0072B0803113B
:100CAE000318013E03195C2EB1072108F000260837
:100CBE000A128A1519210A128A1171088312031356
:100CCE00B9007008B8003808A8003908A900AA01B0
:100CDE00AB012808B407290803110318013E0319B4
:100CEE00792EB5072A0803110318013E0319802E29
:100CFE00B6072B0803110318013E0319872EB707F9
:100D0E002208F00025080A128A1519210A128A11E2
:100D1E00710883120313B9007008B8003808A800D0
:100D2E003908A900AA01AB012808B4072908031144
:100D3E000318013E0319A42EB5072A080311031840
:100D4E00013E0319AB2EB6072B0803110318013E03
:100D5E000319B22EB7072208F00026080A128A15C8
:100D6E0019210A128A11710883120313B90070082F
:100D7E00B8003808A8003908A900AA01AB0108304C
:100D8E000310A80DA90DAA0DAB0DFF3E031DC72E16
:100D9E002808B407290803110318013E0319D82E99
:100DAE00B5072A0803110318013E0319DF2EB607F3
:100DBE002B0803110318013E0319E62EB7072E0860
:100DCE00A8002F08A9003008AA003108AB0018307F
:100DDE000310AB0CAA0CA90CA80CFF3E031DEF2EA2
:100DEE002808B407290803110318013E0319002F20
:100DFE00B5072A0803110318013E0319072FB6077A
:100E0E002B0803110318013E03190E2FB7070830E4
:100E1E00A8000310AE0DAF0DB00DB10DA80B102F25
:100E2E0033083207A800A901A90D2808823EB80090
:100E3E0029080318013EFF3EB900422F0130A800D9
:100E4E000310B40DB50DB60DB70DA80B272FB11F9E
:100E5E00312F322F332F34140130A8000310AE0D72
:100E6E00AF0DB00DB10DA80B352FFF30B80703181D
:100E7E00B90AFF30B907B61F452F462F252FB201ED
:100E8E00B11F4A2F4B2F672FFF302E05A800FF30C2
:100E9E002F05A900FF303005AA007F303105AB00C9
:100EAE002B082A042904280403195E2F5F2F622FB2
:100EBE00B201B20A672F341C652F662F672F5F2F82
:100ECE00320803196B2F6C2F9D2F0130B4070030A1
:100EDE0003180130B507003003180130B607003093
:100EEE0003180130B707371C7D2F7E2F9D2F340836
:100EFE00A8003508A9003608AA003708AB00013053
:100F0E00AC002B0DAB0CAA0CA90CA80CAC0B882FAB
:100F1E002B08B7002A08B6002908B5002808B40027
:100F2E000130B8070318B90A0030B9073908803AFA
:100F3E00FF0080307F02031DA62FFF303802031CF6
:100F4E00A92FAA2FB52F7F3083120313B70080303D
:100F5E00B6000030B5000030B400E62F8312031344
:100F6E003908803AFF0080307F02031DC02F013008
:100F7E0038020318C32FC42FD02F0030831203134F
:100F8E00B7000030B6000030B5000030B400AD013F
:100F9E00E62F831203133808B300FF30B405FF3079
:100FAE00B5057F30B6050030B705331CDF2FE02FB7
:100FBE00E12FB6173308A8000310280CB7002D0830
:100FCE00A8002808B7043708A3003608A200350881
:100FDE00A1003408A00008008313A0308400D43090
:100FEE000A128A15AB200A128A1183010A128A1577
:100FFE00D12C08308A000408840A82070034413458
:10100E0054342B3443344D34473453343D3422342A
:10101E002B3439343134383438343334383437347B
:10102E003034363434343634393422340D340034DA
:10103E00543445344D3450344534523441345434A0
:10104E005534523445343A34003420345334413418
:10105E004D3450344C3449344E3447343A342034C1
:10106E000034463441344834523445344E344834D6
:10107E004934453454343A340034413454342B34E6
:10108E0043344D34473446343D3431340D3400341A
:10109E002034433445344C3443344934553453347A
:1010AE003A342034003446344134483452344534D2
:1010BE004E343A340034203443340D34003420346A
:1010CE0046340D340034413454340D3400342E344F
:0210DE000034DC
:1011560064008001840A0406031900340406AC28DE
:101166000130F0020030031CF103F102700A031D86
:10117600C028710A031DC028C128B3280800F3003F
:101186007318C628CA28831203130914CD2883129C
:1011960003130910720888000A128A1107200A121E
:1011A6008A150800F100E928710884000A128A15D8
:1011B60000200A128A158312031399000130F000E9
:1011C6007008F1070C1EE828E928E5287108840054
:1011D6000A128A1500200A128A15003A031DF428FD
:1011E600F528D7280800F3000C29831203130914E5
:1011F600730884000A128A1500200A128A158800CC
:101206000130F2007208F3070A128A1107200A1247
:101216008A15730884000A128A1500200A128A1594
:10122600003A031D17291829F8280800F800F401C8
:10123600F5017008F200F3017208F6007308F70072
:10124600781C262927292D297608F4070318F50A7C
:101256007708F50701300310F60DF70DFF3E031D65
:101266002E290310F80C7808031D3A293B29232957
:101276007508F1007408F0000800F601F31F442910
:1012860045294C29F209F309F20A0319F30AF60172
:10129600F60AF11F4F2950295529F009F109F00ADC
:1012A6000319F10A7008710403195A295B298A295E
:1012B600F501F50A692901300310F00DF10DFF3E25
:1012C600031D5F290130F4007408F507F11F6C292E
:1012D6006D295E2971087302031D73297008720255
:1012E600031C762977297D297008F2027108031CF0
:1012F600F303F30201300310F10CF00CFF3E031D63
:101306007E290130F502031D89298A296D2976086F
:1013160003198E298F299429F209F309F20A031970
:10132600F30A7308F1007208F00008008130831296
:1013360003139F009030831603139F008312031339
:101346001E08F000F101700883160313D20071081D
:10135600D3001E08F000F1017008D0007108D1001A
:10136600831203139F14EF298316031352085304A1
:10137600031DBE29BF29C3295108CF005008CE003E
:1013860052035304031DC829C929D1295008003E18
:10139600CE0051080318013E013ECF00023052062E
:1013A6005304031DD729D829E0295008003ECE0052
:1013B60051080318013E023ECF0003305206530483
:1013C600031DE629E729EF295008003ECE00510803
:1013D6000318013E033ECF0083129F18F329F42918
:1013E600B729080083120313A101F81FFB29FC2962
:1013F600032AF709F809F70A0319F80AA101A10A4D
:10140600FA1F062A072A102AF909FA09F90A0319FE
:10141600FA0A0130FB007B08A106A201A3017708A6
:1014260078040319172A182A4F2AA001A00A262A87
:1014360001300310F70DF80DFF3E031D1C2A013085
:10144600FB007B08A007F81F292A2A2A1B2A01303D
:101456000310A20DA30DFF3E031D2B2A78087A0266
:10146600031D372A77087902031C3A2A3B2A422AA7
:101476007708F9027808031CFA03FA0222140130ED
:101486000310F80CF70CFF3E031D432A0130A0029F
:10149600031D4E2A4F2A2A2A21080319532A542AA1
:1014A600592AA209A309A20A0319A30A2308F800C4
:1014B6002208F70008006430F7000030F8008312B5
:1014C60003132508F3002408F200E830F000033087
:1014D600F1000A128A1540210A128A157108FA00CB
:1014E6007008F9000A128A15F5210A128A1577087A
:1014F600303E8312031399000C1E822A832A7F2A08
:101506000A30F7000030F8002508F3002408F2003E
:101516006430F0000030F1000A128A1540210A12E8
:101526008A157108FA007008F9000A128A15F52161
:101536000A128A157708303E8312031399000A307F
:10154600F0000030F1002508F3002408F2000A122A
:101556008A1540210A128A157008303E8312031339
:1015660099000C1EB72AB82AB42A69300A128A15BD
:10157600D5200A128A15E830F7000330F8008312E6
:1015860003132508FA002408F9000A128A15F52122
:101596000A128A157708303E8312031399000C1E2F
:1015A600D52AD62AD22A08000310831203136A0DFD
:1015B6006B0D83160313D5005508031DE32AE42A91
:1015C600EF2A003083120313EB000030EA000030EC
:1015D600E9000030E800642B831203136808EC006E
:1015E6006908ED006A08EE006B08EF001F30031073
:1015F600EF0CEE0CED0CEC0CFF3E031DFA2A6C080A
:1016060083160313D40083120313EA17FF30E80589
:10161600FF30E905FF30EA050030EB05963083160A
:101626000313D502D51F182B192B372B5508803AD3
:10163600973E03181F2B202B212BE42A0130031081
:1016460083120313EB0CEA0CE90CE80CFF3E031DB6
:10165600222B0130EC006C0883160313D507031DFB
:10166600352B362B212B522B20305502031C3C2BBD
:101676003D2B4D2BE42A013083120313EC0003109B
:10168600E80DE90DEA0DEB0DEC0B422B013083164C
:101696000313D5025508031D512B522B3E2B54081C
:1016A6000319562B572B642B83120313E809E909F8
:1016B600EA09EB09E80A0319E90A0319EA0A031910
:1016C600EB0A08000A128A1599210A128A15E830CF
:1016D600F7000330F800831603134F08FA004E088C
:1016E600F9000A128A15F5210A128A157808831656
:1016F6000313CD007708CC00E830F0000330F1008A
:101706004F08F3004E08F2000A128A1540210A1209
:101716008A15710883160313CB007008CA0064305B
:10172600F7000030F8004B08FA004A08F9000A12E0
:101736008A15F5210A128A15780883160313C9003B
:101746007708C8006430F0000030F1004B08F30061
:101756004A08F2000A128A1540210A128A157108EF
:1017660083160313C7007008C6000A30F70000305E
:10177600F8004708FA004608F9000A128A15F5210A
:101786000A128A15780883160313C5007708C40061
:101796000A30F0000030F1004708F3004608F20076
:1017A6000A128A1540210A128A1571088316031334
:1017B600C3007008C2008030F20000300A128A1599
:1017C600C2200A128A1527300A128A15F6200A1232
:1017D6008A15831603134C08303EF20001300A12B4
:1017E6008A15C2200A128A15831603134808303E4A
:1017F600F20001300A128A15C2200A128A158316CF
:1018060003134408303EF20001300A128A15C22042
:101816000A128A15831603134208303EF20001307D
:101826000A128A15C2200A128A150800F8007808DA
:1018360003191E2C1F2C332CF31F222C232C332C84
:101846007009FA007109FB007209FC007309FD00BA
:10185600FA0A0319FB0A0319FC0A0319FD0A3B2CB1
:101866007308FD007208FC007108FB007008FA009E
:101876007308720471047004031D422C432C4C2C13
:101886000030F3000030F2000030F1000030F000CC
:10189600D02C9630F9005C2C0130F4007408F9075E
:1018A60001300310FD0CFC0CFB0CFA0CFF3E031D73
:1018B600542CFE307D05031D612C622C4F2C7E2C92
:1018C6000130F4007408F9070130FA0700300318F4
:1018D6000130FB07003003180130FC070030031805
:1018E6000130FD0701300310FD0CFC0CFB0CFA0C5B
:1018F600FF3E031D762CFF307D05031D832C842CB3
:10190600632C902C0130F9020130F4000310FA0D1B
:10191600FB0DFC0DFD0DF40B892CFC1B932C942C5C
:101926009A2C023079020318992C9A2C852C791856
:101936009D2C9E2CA62CFF30FA05FF30FB057F3030
:10194600FC05FF30FD050310F90C7908F400F501DC
:10195600F601F70118300310F40DF50DF60DF70D2D
:10196600FF3E031DAE2C7408FA047508FB047608C6
:10197600FC047708FD0478080319C22CC32CC82C74
:10198600F31FC62CC72CC82CFD177D08F3007C0856
:10199600F2007B08F1007A08F000080083120313B6
:1019A60089018801870186018501FF3083160313AB
:1019B600850003308600890188018701013083167E
:1019C6000317880089016730831603139900831271
:1019D60003139817981BF02CF42C831603178715FE
:1019E600F72C8316031787112630831603139800E6
:1019F6008030940028308312031394008316031357
:101A060091010E30F20000300A128A15C2200A1225
:101A16008A153830F20000300A128A15C2200A12DE
:101A26008A158030F20000300A128A15C2200A1286
:101A36008A150A128A1120200A128A1583120313A4
:101A4600061C262D272D1C2D65300A128A15D52039
:101A56000A128A1583160313D601D701D030F00077
:101A66000730F1000A128A15B3200A128A150130CE
:101A760083160313D6070318D70A0030D70757086B
:101A8600803AFF0080307F02031D4B2D283056021E
:101A9600031C4E2D4F2D312D3F300A128A15D520AD
:101AA6000A128A1583160313D801D901D030F00023
:101AB6000730F1000A128A15B3200A128A1501307E
:101AC60083160313D8070318D90A0030D907590813
:101AD600803AFF0080307F02031D732D28305802A4
:101AE600031C762D772D592D01300A128A15D52023
:101AF6000A128A1583160313DA01DB01D030F000CF
:101B06000730F1000A128A15B3200A128A1501302D
:101B160083160313DA070318DB0A0030DB075B08BA
:101B2600803AFF0080307F02031D9B2D28305A0229
:101B3600031C9E2D9F2D812D1A300A128A15D52041
:101B46000A128A15831603133F0883120313A5008E
:101B5600831603133E0883120313A4000A128A1580
:101B66005E220A128A155D300A128A15D5200A12DB
:101B76008A1583160313DC01DD01D030F00007302F
:101B8600F1000A128A15B3200A128A15013083164B
:101B96000313DC070318DD0A0030DD075D08803A11
:101BA600FF0080307F02031DDA2D28305C02031C03
:101BB600DD2DDE2DC02D33300A128A15D5200A12EE
:101BC6008A1583160313310883120313A50083169F
:101BD6000313300883120313A4000A128A155E2227
:101BE6000A128A1561300A128A15D5200A128A1538
:101BF60083160313DE01DF01D030F0000730F10059
:101C06000A128A15B3200A128A15013083160313A5
:101C1600DE070318DF0A0030DF075F08803AFF009F
:101C260080307F02031D192E28305E02031C1C2EF5
:101C36001D2EFF2D1A308312031399000C1E242E1D
:101C4600252E212E0618282E292E252E1C2D0A1269
:101C56008A1100288312031341088039CB004108FA
:101C6600C2004207D200C01F392E3A2E3B2E521414
:101C7600520803193F2E402E502E520A031D442EA1
:101C8600452E4D2E0030C1000030C0000030BF0090
:101C96000030BE00C017C101582E0030C100003010
:101CA600C0000030BF000030BE003D088039C200D1
:101CB6004208CB063D08C2004207D300BC1F642E73
:101CC600652E662E5314530803196A2E6B2E7B2E2F
:101CD600530A031D6F2E702E782E0030BD00003083
:101CE600BC000030BB000030BA00BC17BD01832E1B
:101CF6000030BD000030BC000030BB000030BA0030
:101D06003D083C043B043A04031D8A2E8B2EA42E68
:101D16000030C1000030C0000030BF000030BE00FF
:101D26008030C0047F30C1044B08C2004208C104A1
:101D36004108BD004008BC003F08BB003E08BA0091
:101D4600FF2F5208031DA82EA92EB22E0030BD006B
:101D56000030BC000030BB000030BA00FF2F520834
:101D6600C200C3014308C50053084202C400031C55
:101D7600C50344087F3ECC0045080318013E003EDB
:101D8600CD004108CA004008C9003F08C8003E0807
:101D9600C7000030C1000030C0000030BF00003076
:101DA600BE000030D1000030D0000030CF0000303F
:101DB600CE00D301282F53080319E22EE32E032F5A
:101DC6000130C2000310C70DC80DC90DCA0DC20BE4
:101DD600E52E0130C2000310BE0DBF0DC00DC10DB2
:101DE600C20BEE2ED11FF82EF92EFA2E3E1401301C
:101DF600C2000310CE0DCF0DD00DD10DC20BFC2E9F
:101E06003D084A02031D112F3C084902031D112FEC
:101E16003B084802031D112F3A084702031C142FE2
:101E2600152F242F51173A08C7023B08031C3B0FF6
:101E3600C8023C08031C3C0FC9023D08031C3D0FA9
:101E4600CA020130C2004208D3071A305302031CEB
:101E56002D2F2E2FDE2E4A08490448044704031965
:101E6600352F362F552F4E14552F0130C200031033
:101E7600BE0DBF0DC00DC10DC20B3A2FD11F442F91
:101E8600452F462F3E140130C2000310CE0DCF0D54
:101E9600D00DD10DC20B482FFF30CC070318CD0A49
:101EA600FF30CD07C01F582F592F382FD301D11F10
:101EB6005D2F5E2F7A2FFF304E05C200FF304F0593
:101EC600C300FF305005C4007F305105C5004508EA
:101ED6004404430442040319712F722F752FD30152
:101EE600D30A7A2F3E1C782F792F7A2F722F530818
:101EF60003197E2F7F2FB02F0130BE070030031845
:101F06000130BF07003003180130C0070030031846
:101F16000130C107411C902F912FB02F3E08C200FF
:101F26003F08C3004008C4004108C5000130C60090
:101F3600450DC50CC40CC30CC20CC60B9B2F450823
:101F4600C1004408C0004308BF004208BE0001307B
:101F5600CC070318CD0A0030CD074D08803AFF00A4
:101F660080307F02031DB92FFF304C02031CBC2FAB
:101F7600BD2FCB2FFF3083120313CC000030CD00D2
:101F86000030C1000030C0000030BF000030BE008D
:101F9600831203134D08803AFF0080307F02031D31
:101FA600D62F01304C020318D92FDA2FE72F8312D0
:101FB6000313CC01CD010030C1000030C000003059
:101FC600BF000030BE00CB01831203134C08D200C1
:101FD600521CEE2FEF2FF12FC017F52F7F30C200C6
:101FE6004208C0055208C2000310420CC1004B084B
:0A1FF600C2004208C1049B2E08003F
:08400000FF3FFF3FFF3FFF3FC0
:04400E00E42CFF3F60
:00000001FF
